{
  "contractName": "Lottery",
  "abi": [
    {
      "inputs": [
        {
          "name": "maxNum",
          "type": "uint64"
        },
        {
          "name": "price",
          "type": "uint256"
        }
      ],
      "payable": false,
      "stateMutability": "nonpayable",
      "type": "constructor"
    },
    {
      "constant": false,
      "inputs": [
        {
          "name": "numberForTicket",
          "type": "uint64"
        }
      ],
      "name": "buyTicket",
      "outputs": [],
      "payable": true,
      "stateMutability": "payable",
      "type": "function"
    }
  ],
  "bytecode": "0x60806040526002805467ffffffffffffffff191690556000600381905560075534801561002b57600080fd5b5060405160408061045b8339810180604052604081101561004b57600080fd5b508051602091820151604080516080810182526001808252600095820186905267ffffffffffffffff909416918101829052606001829052835460ff19168317610100605060020a0319166201000090910217835590556103a99081906100b290396000f3fe6080604052600436106100405763ffffffff7c010000000000000000000000000000000000000000000000000000000060003504166388d733b58114610045575b600080fd5b61006c6004803603602081101561005b57600080fd5b503567ffffffffffffffff1661006e565b005b600154348111156100e057604080517f08c379a000000000000000000000000000000000000000000000000000000000815260206004820152601a60248201527f4e6f7420656e6f7567682045746865722070726f76696465642e000000000000604482015290519081900360640190fd5b60005460ff16151561017957604080517f08c379a000000000000000000000000000000000000000000000000000000000815260206004820152603260248201527f4c6f74746572792063616e7420616363657074207469636b657420707572636860448201527f6173657320617420746869732073746167650000000000000000000000000000606482015290519081900360840190fd5b8160008167ffffffffffffffff16101580156101ab575060005467ffffffffffffffff62010000909104811690821611155b151561023e57604080517f08c379a000000000000000000000000000000000000000000000000000000000815260206004820152603560248201527f4c6f74746572792063616e742061636365707420737563682061206e756d626560448201527f722c206974206973206f7574206f662072616e67650000000000000000000000606482015290519081900360840190fd5b5060408051808201825267ffffffffffffffff808516808352336020808501918252600280548086166001818101881667ffffffffffffffff1993841617909355600090815260049384905297882096518754945173ffffffffffffffffffffffffffffffffffffffff1668010000000000000000027fffffffff0000000000000000000000000000000000000000ffffffffffffffff9188169590921694909417939093169290921790945580546003805490910181556005805492830181559095529283047f036b6384b5eca791c62761152d0c79bb0604c104a5fb6f4eb0703f3154bb3db0018054939094166008026101000a908102910219909116179055348110156103795760405133903483900380156108fc02916000818181858888f19350505050158015610377573d6000803e3d6000fd5b505b505056fea165627a7a7230582039799c137dcf94bb0a37632e7c8ace4ca5d204ed54e6e28bcc554ef4802f96460029",
  "source": "pragma solidity ^0.5.0;\n\ncontract Lottery {\n    State lotteryState;\n    uint64 numberOfTickets = 0;\n    uint256 totalPriceMoney = 0;\n    mapping (uint => Ticket) tickets;\n    uint64[] ticketNumbers;\n    address[] winners;\n    uint256 numberOfWinners = 0;\n    \n    struct State {\n        bool open;\n        uint8 round;\n        uint64 maxNumber;\n        uint256 ticketPrice;\n    }\n    \n    struct Ticket {\n        uint64 number;\n        address sender;\n    }\n    \n    constructor (uint64 maxNum, uint256 price) public {\n        lotteryState = State(true, 0, maxNum, price);\n\t\t//closeLotteryAtSomePointInTime();\n    }\n    \n    function buyTicket (uint64 numberForTicket) public payable costs(lotteryState.ticketPrice) lotteryIsOpen() numberIsAllowed(numberForTicket){\n        tickets[numberOfTickets++] = Ticket(numberForTicket, msg.sender);\n\t\ttotalPriceMoney = totalPriceMoney + lotteryState.ticketPrice;\n\t\tticketNumbers.push(numberForTicket);\n    }\n    \n    function numberWasGuessed (uint64 lotteryResult) private view returns (bool) {\n        bool found = false;\n        for(uint64 i = 0; i < ticketNumbers.length; i++) {\n            if(ticketNumbers[i] == lotteryResult) {\n                found = true;\n                return found;\n            }\n        }\n        return found;\n    }\n    \n    function computeWinners (uint64 lotteryResult) private {\n        for (uint64 ticketIndex = 0; ticketIndex < numberOfTickets; ticketIndex++) {\n            if(tickets[ticketIndex].number == lotteryResult) {\n                winners.push(tickets[ticketIndex].sender);\n            }\n        }\n        numberOfWinners = winners.length;\n    }\n    \n    function payOut () private lotteryIsClosed() {\n            if(numberOfWinners == 0) {\n                //no one claimed the price money -> reset ticket purchases but keep payOut\n                resetTicketPurchases();\n                \n            } else {\n                // one or more persons claimed the price -> pay them and reset the lottery\n                uint pricePerWinner = totalPriceMoney / numberOfWinners;\n                for(uint winnerIndex = 0; winnerIndex < winners.length; winnerIndex++) {\n                    // create transaction and send the price to each winner\n                }\n                resetLotteryCompletely();\n            }\n        \n    }\n    \n    function resetLotteryCompletely () private lotteryIsClosed() {\n        resetTicketPurchases();\n        resetLotteryState();\n    }\n    \n    function resetLotteryState () private {\n        \n    }\n    \n    function queryLotteryNumberFromOracle () private {\n        \n    }\n    \n    function closeLotteryAtSomePointInTime () private {\n        // TODO do this e.g. after N blocks\n        lotteryState.open = false;\n\t// TODO: input variable should be random computed with the oracle of compute winners\n\t    computeWinners(5);\n        payOut();\n    }\n    \n    function resetTicketPurchases () private {\n            //Configuration lotteryState;\n            numberOfTickets = 0;\n            //delete tickets;\n            delete ticketNumbers;\n            delete winners;\n            numberOfWinners = 0;\n    }\n    \n    modifier costs(uint _amount) {\n        require(\n            msg.value >= _amount,\n            \"Not enough Ether provided.\"\n        );\n        _;\n        if (msg.value > _amount)\n            msg.sender.transfer(msg.value - _amount);\n    }\n    \n    modifier lotteryIsOpen () {\n        require(\n            lotteryState.open,\n            \"Lottery cant accept ticket purchases at this stage\"\n        );\n        _;\n    }\n    modifier lotteryIsClosed () {\n        require(\n            !lotteryState.open,\n            \"Lottery is still open\"\n        );\n        _;\n    }\n\n    modifier numberIsAllowed (uint64 numberForTicket) {\n        require(\n            numberForTicket>=0 && numberForTicket<=lotteryState.maxNumber,\n            \"Lottery cant accept such a number, it is out of range\"\n        );\n        _;\n    }\n}\n\n",
  "sourcePath": "/Users/noahberni/Desktop/Blockchains and Overlay Networks/CT/Lottery-SC/contracts/Lottery.sol",
  "compiler": {
    "name": "solc",
    "version": "0.5.0+commit.1d4f565a.Emscripten.clang"
  },
  "schemaVersion": "3.0.9",
  "updatedAt": "2019-05-09T07:18:14.238Z",
  "devdoc": {
    "methods": {}
  },
  "userdoc": {
    "methods": {}
  }
}