{
  "contractName": "Lottery",
  "abi": [
    {
      "inputs": [
        {
          "name": "maxNum",
          "type": "uint64"
        },
        {
          "name": "price",
          "type": "uint256"
        }
      ],
      "payable": false,
      "stateMutability": "nonpayable",
      "type": "constructor",
      "signature": "constructor"
    },
    {
      "constant": false,
      "inputs": [
        {
          "name": "numberForTicket",
          "type": "uint64"
        }
      ],
      "name": "buyTicket",
      "outputs": [],
      "payable": true,
      "stateMutability": "payable",
      "type": "function",
      "signature": "0x88d733b5"
    }
  ],
  "bytecode": "0x60806040526002805467ffffffffffffffff191690556000600381905560075534801561002b57600080fd5b5060405160408061045b8339810180604052604081101561004b57600080fd5b508051602091820151604080516080810182526001808252600095820186905267ffffffffffffffff909416918101829052606001829052835460ff19168317610100605060020a0319166201000090910217835590556103a99081906100b290396000f3fe6080604052600436106100405763ffffffff7c010000000000000000000000000000000000000000000000000000000060003504166388d733b58114610045575b600080fd5b61006c6004803603602081101561005b57600080fd5b503567ffffffffffffffff1661006e565b005b600154348111156100e057604080517f08c379a000000000000000000000000000000000000000000000000000000000815260206004820152601a60248201527f4e6f7420656e6f7567682045746865722070726f76696465642e000000000000604482015290519081900360640190fd5b60005460ff16151561017957604080517f08c379a000000000000000000000000000000000000000000000000000000000815260206004820152603260248201527f4c6f74746572792063616e7420616363657074207469636b657420707572636860448201527f6173657320617420746869732073746167650000000000000000000000000000606482015290519081900360840190fd5b8160008167ffffffffffffffff16101580156101ab575060005467ffffffffffffffff62010000909104811690821611155b151561023e57604080517f08c379a000000000000000000000000000000000000000000000000000000000815260206004820152603560248201527f4c6f74746572792063616e742061636365707420737563682061206e756d626560448201527f722c206974206973206f7574206f662072616e67650000000000000000000000606482015290519081900360840190fd5b5060408051808201825267ffffffffffffffff808516808352336020808501918252600280548086166001818101881667ffffffffffffffff1993841617909355600090815260049384905297882096518754945173ffffffffffffffffffffffffffffffffffffffff1668010000000000000000027fffffffff0000000000000000000000000000000000000000ffffffffffffffff9188169590921694909417939093169290921790945580546003805490910181556005805492830181559095529283047f036b6384b5eca791c62761152d0c79bb0604c104a5fb6f4eb0703f3154bb3db0018054939094166008026101000a908102910219909116179055348110156103795760405133903483900380156108fc02916000818181858888f19350505050158015610377573d6000803e3d6000fd5b505b505056fea165627a7a72305820168c308c861fbf1eb27fffe24e4cdf3cc1ce9b611cb17fbafeb1c9c7c15b25dd0029",
  "source": "pragma solidity ^0.5.0;\r\n\r\ncontract Lottery {\r\n    State lotteryState;\r\n    uint64 numberOfTickets = 0;\r\n    uint256 totalPriceMoney = 0;\r\n    mapping (uint => Ticket) tickets;\r\n    uint64[] ticketNumbers;\r\n    address[] winners;\r\n    uint256 numberOfWinners = 0;\r\n    \r\n    struct State {\r\n        bool open;\r\n        uint8 round;\r\n        uint64 maxNumber;\r\n        uint256 ticketPrice;\r\n    }\r\n    \r\n    struct Ticket {\r\n        uint64 number;\r\n        address sender;\r\n    }\r\n    \r\n    constructor (uint64 maxNum, uint256 price) public {\r\n        lotteryState = State(true, 0, maxNum, price);\r\n\t\t//closeLotteryAtSomePointInTime();\r\n    }\r\n    \r\n    function buyTicket (uint64 numberForTicket) public payable costs(lotteryState.ticketPrice) lotteryIsOpen() numberIsAllowed(numberForTicket){\r\n        tickets[numberOfTickets++] = Ticket(numberForTicket, msg.sender);\r\n\t\ttotalPriceMoney = totalPriceMoney + lotteryState.ticketPrice;\r\n\t\tticketNumbers.push(numberForTicket);\r\n    }\r\n    \r\n    function numberWasGuessed (uint64 lotteryResult) private view returns (bool) {\r\n        bool found = false;\r\n        for(uint64 i = 0; i < ticketNumbers.length; i++) {\r\n            if(ticketNumbers[i] == lotteryResult) {\r\n                found = true;\r\n                return found;\r\n            }\r\n        }\r\n        return found;\r\n    }\r\n    \r\n    function computeWinners (uint64 lotteryResult) private {\r\n        for (uint64 ticketIndex = 0; ticketIndex < numberOfTickets; ticketIndex++) {\r\n            if(tickets[ticketIndex].number == lotteryResult) {\r\n                winners.push(tickets[ticketIndex].sender);\r\n            }\r\n        }\r\n        numberOfWinners = winners.length;\r\n    }\r\n    \r\n    function payOut () private lotteryIsClosed() {\r\n            if(numberOfWinners == 0) {\r\n                //no one claimed the price money -> reset ticket purchases but keep payOut\r\n                resetTicketPurchases();\r\n                \r\n            } else {\r\n                // one or more persons claimed the price -> pay them and reset the lottery\r\n                uint pricePerWinner = totalPriceMoney / numberOfWinners;\r\n                for(uint winnerIndex = 0; winnerIndex < winners.length; winnerIndex++) {\r\n                    // create transaction and send the price to each winner\r\n                }\r\n                resetLotteryCompletely();\r\n            }\r\n        \r\n    }\r\n    \r\n    function resetLotteryCompletely () private lotteryIsClosed() {\r\n        resetTicketPurchases();\r\n        resetLotteryState();\r\n    }\r\n    \r\n    function resetLotteryState () private {\r\n        \r\n    }\r\n    \r\n    function queryLotteryNumberFromOracle () private {\r\n        \r\n    }\r\n    \r\n    function closeLotteryAtSomePointInTime () private {\r\n        // TODO do this e.g. after N blocks\r\n        lotteryState.open = false;\r\n\t// TODO: input variable should be random computed with the oracle of compute winners\r\n\t    computeWinners(5);\r\n        payOut();\r\n    }\r\n    \r\n    function resetTicketPurchases () private {\r\n            //Configuration lotteryState;\r\n            numberOfTickets = 0;\r\n            //delete tickets;\r\n            delete ticketNumbers;\r\n            delete winners;\r\n            numberOfWinners = 0;\r\n    }\r\n    \r\n    modifier costs(uint _amount) {\r\n        require(\r\n            msg.value >= _amount,\r\n            \"Not enough Ether provided.\"\r\n        );\r\n        _;\r\n        if (msg.value > _amount)\r\n            msg.sender.transfer(msg.value - _amount);\r\n    }\r\n    \r\n    modifier lotteryIsOpen () {\r\n        require(\r\n            lotteryState.open,\r\n            \"Lottery cant accept ticket purchases at this stage\"\r\n        );\r\n        _;\r\n    }\r\n    modifier lotteryIsClosed () {\r\n        require(\r\n            !lotteryState.open,\r\n            \"Lottery is still open\"\r\n        );\r\n        _;\r\n    }\r\n\r\n    modifier numberIsAllowed (uint64 numberForTicket) {\r\n        require(\r\n            numberForTicket>=0 && numberForTicket<=lotteryState.maxNumber,\r\n            \"Lottery cant accept such a number, it is out of range\"\r\n        );\r\n        _;\r\n    }\r\n}\r\n\r\n",
  "sourcePath": "C:/Code/Private/Lottery-SC/Lottery-SC/contracts/Lottery.sol",
  "compiler": {
    "name": "solc",
    "version": "0.5.0+commit.1d4f565a.Emscripten.clang"
  },
  "schemaVersion": "3.0.1",
  "updatedAt": "2019-05-09T08:54:08.246Z",
  "devdoc": {
    "methods": {}
  },
  "userdoc": {
    "methods": {}
  }
}