{
  "contractName": "Lottery",
  "abi": [
    {
      "inputs": [
        {
          "name": "maxNum",
          "type": "uint64"
        },
        {
          "name": "price",
          "type": "uint256"
        }
      ],
      "payable": false,
      "stateMutability": "nonpayable",
      "type": "constructor",
      "signature": "constructor"
    },
    {
      "constant": false,
      "inputs": [
        {
          "name": "numberForTicket",
          "type": "uint64"
        }
      ],
      "name": "buyTicket",
      "outputs": [],
      "payable": true,
      "stateMutability": "payable",
      "type": "function",
      "signature": "0x88d733b5"
    }
  ],
  "bytecode": "0x6080604052600280546001604060020a03191690556000600381905560075534801561002a57600080fd5b506040516040806105d18339810180604052604081101561004a57600080fd5b508051602091820151604080516080810182526001808252600095820186905267ffffffffffffffff85169282018390526060909101839052845460ff19168117610100605060020a031916620100009092029190911790935591829055906100ba6401000000006100c1810204565b50506102ce565b6000805460ff191690556100dc6401000000006100de810204565b565b60005460ff161561015057604080517f08c379a000000000000000000000000000000000000000000000000000000000815260206004820152601560248201527f4c6f7474657279206973207374696c6c206f70656e0000000000000000000000604482015290519081900360640190fd5b600754151561016f5761016a6401000000006101ad810204565b6100dc565b600060075460035481151561018057fe5b04905060005b60065481101561019857600101610186565b506101aa6401000000006101dc810204565b50565b600280546001604060020a03191690556101c96005600061026e565b6101d560066000610293565b6000600755565b60005460ff161561024e57604080517f08c379a000000000000000000000000000000000000000000000000000000000815260206004820152601560248201527f4c6f7474657279206973207374696c6c206f70656e0000000000000000000000604482015290519081900360640190fd5b61025f6401000000006101ad810204565b6100dc64010000000080820204565b5080546000825560030160049004906000526020600020908101906101aa91906102ad565b50805460008255906000526020600020908101906101aa91905b6102cb91905b808211156102c757600081556001016102b3565b5090565b90565b6102f4806102dd6000396000f3fe6080604052600436106100405763ffffffff7c010000000000000000000000000000000000000000000000000000000060003504166388d733b58114610045575b600080fd5b61006c6004803603602081101561005b57600080fd5b503567ffffffffffffffff1661006e565b005b600154348111156100e057604080517f08c379a000000000000000000000000000000000000000000000000000000000815260206004820152601a60248201527f4e6f7420656e6f7567682045746865722070726f76696465642e000000000000604482015290519081900360640190fd5b60005460ff16151561017957604080517f08c379a000000000000000000000000000000000000000000000000000000000815260206004820152603260248201527f4c6f74746572792063616e7420616363657074207469636b657420707572636860448201527f6173657320617420746869732073746167650000000000000000000000000000606482015290519081900360840190fd5b6002805467ffffffffffffffff8082166001818101831667ffffffffffffffff199485161790945560009081526004602081815260408084208151808301909252898616808352338385019081528254808b0184559287529386209251929091018054935173ffffffffffffffffffffffffffffffffffffffff1668010000000000000000027fffffffff0000000000000000000000000000000000000000ffffffffffffffff938816949098169390931791909116959095179055845460038054909101815560058054968701815590925284047f036b6384b5eca791c62761152d0c79bb0604c104a5fb6f4eb0703f3154bb3db0018054949091166008026101000a9283029290910219909216179055348110156102c45760405133903483900380156108fc02916000818181858888f193505050501580156102c2573d6000803e3d6000fd5b505b505056fea165627a7a723058208148eba53536d1cb4c4087900231095793d9ee44077cf6aa58cd3f45a56c3f530029",
  "source": "pragma solidity ^0.5.0;\r\n\r\ncontract Lottery {\r\n    State lotteryState;\r\n    uint64 numberOfTickets = 0;\r\n    uint256 totalPriceMoney = 0;\r\n    mapping (uint => Ticket[]) tickets;\r\n    uint64[] ticketNumbers;\r\n    address[] winners;\r\n    uint256 numberOfWinners = 0;\r\n    \r\n    struct State {\r\n        bool open;\r\n        uint8 round;\r\n        uint64 maxNumber;\r\n        uint256 ticketPrice;\r\n    }\r\n    \r\n    struct Ticket {\r\n        uint64 number;\r\n        address sender;\r\n    }\r\n    \r\n    constructor (uint64 maxNum, uint256 price) public {\r\n        lotteryState = State(true, 0, maxNum, price);\r\n\t\tcloseLotteryAtSomePointInTime();\r\n    }\r\n    \r\n    function buyTicket (uint64 numberForTicket) public payable costs(lotteryState.ticketPrice) lotteryIsOpen() {\r\n        tickets[numberOfTickets++].push(Ticket(numberForTicket, msg.sender));\r\n\t\ttotalPriceMoney = totalPriceMoney + lotteryState.ticketPrice;\r\n\t\tticketNumbers.push(numberForTicket);\r\n    }\r\n    \r\n    function numberWasGuessed (uint64 lotteryResult) private view returns (bool) {\r\n        bool found = false;\r\n        for(uint64 i = 0; i < ticketNumbers.length; i++) {\r\n            if(ticketNumbers[i] == lotteryResult) {\r\n                found = true;\r\n                return found;\r\n            }\r\n        }\r\n        return found;\r\n    }\r\n    \r\n    function computeWinners (uint64 lotteryResult) private {\r\n        for(uint64 memberIndex = 0; memberIndex < numberOfTickets; memberIndex++) {\r\n            for (uint64 ticketIndex = 0; ticketIndex < tickets[numberOfTickets].length; ticketIndex++) {\r\n                if(tickets[memberIndex][ticketIndex].number == lotteryResult) {\r\n                    winners.push(tickets[memberIndex][ticketIndex].sender);\r\n                }   \r\n            }\r\n        }\r\n        numberOfWinners = winners.length;\r\n    }\r\n    \r\n    function payOut () private lotteryIsClosed() {\r\n            if(numberOfWinners == 0) {\r\n                //no one claimed the price money -> reset ticket purchases but keep payOut\r\n                resetTicketPurchases();\r\n                \r\n            } else {\r\n                // one or more persons claimed the price -> pay them and reset the lottery\r\n                uint pricePerWinner = totalPriceMoney / numberOfWinners;\r\n                for(uint winnerIndex = 0; winnerIndex < winners.length; winnerIndex++) {\r\n                    // create transaction and send the price to each winner\r\n                }\r\n                resetLotteryCompletely();\r\n            }\r\n        \r\n    }\r\n    \r\n    function resetLotteryCompletely () private lotteryIsClosed() {\r\n        resetTicketPurchases();\r\n        resetLotteryState();\r\n    }\r\n    \r\n    function resetLotteryState () private {\r\n        \r\n    }\r\n    \r\n    function queryLotteryNumberFromOracle () private {\r\n        \r\n    }\r\n    \r\n    function closeLotteryAtSomePointInTime () private {\r\n        // do this e.g. after N blocks\r\n        lotteryState.open = false;\r\n        payOut();\r\n    }\r\n    \r\n    function resetTicketPurchases () private {\r\n            //Configuration lotteryState;\r\n            numberOfTickets = 0;\r\n            //delete tickets;\r\n            delete ticketNumbers;\r\n            delete winners;\r\n            numberOfWinners = 0;\r\n    }\r\n    \r\n    modifier costs(uint _amount) {\r\n        require(\r\n            msg.value >= _amount,\r\n            \"Not enough Ether provided.\"\r\n        );\r\n        _;\r\n        if (msg.value > _amount)\r\n            msg.sender.transfer(msg.value - _amount);\r\n    }\r\n    \r\n    modifier lotteryIsOpen () {\r\n        require(\r\n            lotteryState.open,\r\n            \"Lottery cant accept ticket purchases at this stage\"\r\n        );\r\n        _;\r\n    }\r\n    modifier lotteryIsClosed () {\r\n        require(\r\n            !lotteryState.open,\r\n            \"Lottery is still open\"\r\n        );\r\n        _;\r\n    }\r\n}\r\n\r\n",
  "sourcePath": "C:/Code/Private/Lottery-SC/Lottery-SC/contracts/Lottery.sol",
  "compiler": {
    "name": "solc",
    "version": "0.5.0+commit.1d4f565a.Emscripten.clang"
  },
  "schemaVersion": "3.0.1",
  "updatedAt": "2019-05-01T14:28:33.815Z",
  "devdoc": {
    "methods": {}
  },
  "userdoc": {
    "methods": {}
  }
}