{
  "contractName": "Oracle",
  "abi": [
    {
      "constant": true,
      "inputs": [],
      "name": "max",
      "outputs": [
        {
          "name": "",
          "type": "uint8"
        }
      ],
      "payable": false,
      "stateMutability": "view",
      "type": "function",
      "signature": "0x6ac5db19"
    },
    {
      "constant": true,
      "inputs": [
        {
          "name": "",
          "type": "address"
        }
      ],
      "name": "commits",
      "outputs": [
        {
          "name": "commit",
          "type": "bytes32"
        },
        {
          "name": "block",
          "type": "uint64"
        },
        {
          "name": "revealed",
          "type": "bool"
        }
      ],
      "payable": false,
      "stateMutability": "view",
      "type": "function",
      "signature": "0x7b43a8e6"
    },
    {
      "inputs": [],
      "payable": false,
      "stateMutability": "nonpayable",
      "type": "constructor",
      "signature": "constructor"
    },
    {
      "anonymous": false,
      "inputs": [
        {
          "indexed": false,
          "name": "sender",
          "type": "address"
        },
        {
          "indexed": false,
          "name": "dataHash",
          "type": "bytes32"
        },
        {
          "indexed": false,
          "name": "block",
          "type": "uint64"
        }
      ],
      "name": "CommitHash",
      "type": "event",
      "signature": "0x3c1a1f8f38335b17f751c6da4ba7d1865f26b3997535176f5080de9fad891603"
    },
    {
      "anonymous": false,
      "inputs": [
        {
          "indexed": false,
          "name": "sender",
          "type": "address"
        },
        {
          "indexed": false,
          "name": "revealHash",
          "type": "bytes32"
        },
        {
          "indexed": false,
          "name": "random",
          "type": "uint256"
        }
      ],
      "name": "RevealHash",
      "type": "event",
      "signature": "0xbc016dd1cadeaefcb851af7a0a93532e0023d536894b730801f7bcfe7065bcc2"
    },
    {
      "constant": false,
      "inputs": [
        {
          "name": "dataHash",
          "type": "bytes32"
        }
      ],
      "name": "commit",
      "outputs": [],
      "payable": false,
      "stateMutability": "nonpayable",
      "type": "function",
      "signature": "0xf14fcbc8"
    },
    {
      "constant": true,
      "inputs": [
        {
          "name": "data",
          "type": "bytes32"
        }
      ],
      "name": "getHash",
      "outputs": [
        {
          "name": "",
          "type": "bytes32"
        }
      ],
      "payable": false,
      "stateMutability": "view",
      "type": "function",
      "signature": "0x3cf5040a"
    },
    {
      "constant": true,
      "inputs": [
        {
          "name": "b",
          "type": "bytes32"
        }
      ],
      "name": "convert",
      "outputs": [
        {
          "name": "",
          "type": "uint256"
        }
      ],
      "payable": false,
      "stateMutability": "pure",
      "type": "function",
      "signature": "0x83101b68"
    },
    {
      "constant": false,
      "inputs": [
        {
          "name": "revealHash",
          "type": "bytes32"
        }
      ],
      "name": "reveal",
      "outputs": [],
      "payable": false,
      "stateMutability": "nonpayable",
      "type": "function",
      "signature": "0x701fd0f1"
    },
    {
      "constant": false,
      "inputs": [
        {
          "name": "length",
          "type": "uint256"
        }
      ],
      "name": "getRandomNumberOfLength",
      "outputs": [
        {
          "name": "",
          "type": "uint256"
        }
      ],
      "payable": false,
      "stateMutability": "nonpayable",
      "type": "function",
      "signature": "0x62225f86"
    }
  ],
  "bytecode": "0x60806040526000805460ff1916606417905534801561001d57600080fd5b506106a88061002d6000396000f3fe6080604052600436106100825763ffffffff7c01000000000000000000000000000000000000000000000000000000006000350416633cf5040a811461008757806362225f86146100c35780636ac5db19146100ed578063701fd0f1146101185780637b43a8e61461014457806383101b68146101ad578063f14fcbc8146101d7575b600080fd5b34801561009357600080fd5b506100b1600480360360208110156100aa57600080fd5b5035610201565b60408051918252519081900360200190f35b3480156100cf57600080fd5b506100b1600480360360208110156100e657600080fd5b5035610241565b3480156100f957600080fd5b50610102610247565b6040805160ff9092168252519081900360200190f35b34801561012457600080fd5b506101426004803603602081101561013b57600080fd5b5035610250565b005b34801561015057600080fd5b506101846004803603602081101561016757600080fd5b503573ffffffffffffffffffffffffffffffffffffffff166105bf565b6040805193845267ffffffffffffffff9092166020840152151582820152519081900360600190f35b3480156101b957600080fd5b506100b1600480360360208110156101d057600080fd5b50356105f3565b3480156101e357600080fd5b50610142600480360360208110156101fa57600080fd5b50356105f6565b60408051306c0100000000000000000000000002602080830191909152603480830194909452825180830390940184526054909101909152815191012090565b50600090565b60005460ff1681565b336000908152600160208190526040909120015468010000000000000000900460ff16156102ee576040805160e560020a62461bcd02815260206004820152602660248201527f436f6d6d697452657665616c3a3a72657665616c3a20416c726561647920726560448201527f7665616c65640000000000000000000000000000000000000000000000000000606482015290519081900360840190fd5b336000908152600160208190526040909120908101805468ff00000000000000001916680100000000000000001790555461032882610201565b146103a3576040805160e560020a62461bcd02815260206004820152603960248201527f436f6d6d697452657665616c3a3a72657665616c3a2052657665616c6564206860448201527f61736820646f6573206e6f74206d6174636820636f6d6d697400000000000000606482015290519081900360840190fd5b336000908152600160208190526040909120015467ffffffffffffffff9081164390911611610468576040805160e560020a62461bcd02815260206004820152604260248201527f436f6d6d697452657665616c3a3a72657665616c3a2052657665616c20616e6460448201527f20636f6d6d69742068617070656e6564206f6e207468652073616d6520626c6f60648201527f636b000000000000000000000000000000000000000000000000000000000000608482015290519081900360a40190fd5b336000908152600160208190526040909120015460fa67ffffffffffffffff91821601811643909116111561050d576040805160e560020a62461bcd02815260206004820152602760248201527f436f6d6d697452657665616c3a3a72657665616c3a2052657665616c6564207460448201527f6f6f206c61746500000000000000000000000000000000000000000000000000606482015290519081900360840190fd5b336000908152600160208181526040808420909201548354835167ffffffffffffffff9092164082840181905282850187905284518084038601815260609093019094528151919092012091929160ff9091169061056a906105f3565b81151561057357fe5b60408051338152602081018790529290910682820181905290519092507fbc016dd1cadeaefcb851af7a0a93532e0023d536894b730801f7bcfe7065bcc29181900360600190a1505050565b6001602081905260009182526040909120805491015467ffffffffffffffff81169068010000000000000000900460ff1683565b90565b33600081815260016020818152604092839020858155909101805467ffffffffffffffff19164367ffffffffffffffff9081169190911768ff000000000000000019811690925583519485529184018590521682820152517f3c1a1f8f38335b17f751c6da4ba7d1865f26b3997535176f5080de9fad891603916060908290030190a15056fea165627a7a72305820f2eede89e04c0b6b6d0457263cc1ef37c67c3c14db1a3ccd0394ad05d3999c7c0029",
  "source": "pragma solidity ^0.5.0;\r\n\r\ncontract Oracle {\r\n\t\r\n\tuint8 public max = 100;\r\n\t\r\n    constructor () public{\r\n        \r\n    }\r\n\t\r\n\tstruct Commit {\r\n\t\tbytes32 commit;\r\n\t\tuint64 block;\r\n\t\tbool revealed;\r\n\t}\r\n\t  \r\n\tmapping (address => Commit) public commits;\r\n\t  \r\n\tfunction commit(bytes32 dataHash) public {\r\n\t\tcommits[msg.sender].commit = dataHash;\r\n\t\tcommits[msg.sender].block = uint64(block.number);\r\n\t\tcommits[msg.sender].revealed = false;\r\n\t\temit CommitHash(msg.sender,commits[msg.sender].commit,commits[msg.sender].block);\r\n\t}\r\n\t  \r\n\tevent CommitHash(address sender, bytes32 dataHash, uint64 block);\r\n    \r\n\tfunction getHash(bytes32 data) public view returns(bytes32){\r\n\t\treturn keccak256(abi.encodePacked(address(this), data));\r\n\t}\r\n\t\r\n\tfunction convert(bytes32 b) public pure returns(uint) {\r\n        return uint(b);\r\n    }\r\n\t\r\n\tfunction reveal(bytes32 revealHash) public {\r\n\t\t//make sure it hasn't been revealed yet and set it to revealed\r\n\t\trequire(commits[msg.sender].revealed==false,\"CommitReveal::reveal: Already revealed\");\r\n\t\tcommits[msg.sender].revealed=true;\r\n\t\r\n\t\t//require that they can produce the committed hash\r\n\t\trequire(getHash(revealHash)==commits[msg.sender].commit,\"CommitReveal::reveal: Revealed hash does not match commit\");\r\n\t\t\r\n\t\t//require that the block number is greater than the original block\r\n\t\trequire(uint64(block.number)>commits[msg.sender].block,\"CommitReveal::reveal: Reveal and commit happened on the same block\");\r\n\t\t\r\n\t\t//require that no more than 250 blocks have passed\r\n\t\trequire(uint64(block.number)<=commits[msg.sender].block+250,\"CommitReveal::reveal: Revealed too late\");\r\n\t\t\r\n\t\t//get the hash of the block that happened after they committed\r\n\t\tbytes32 blockHash = blockhash(commits[msg.sender].block);\r\n\t\t\r\n\t\t//hash that with their reveal that so miner shouldn't know and mod it with some max number you want\r\n\t\tuint256 random = convert(keccak256(abi.encodePacked(blockHash,revealHash)))%max;\r\n\t\temit RevealHash(msg.sender,revealHash,random);\r\n\t}\r\n\tevent RevealHash(address sender, bytes32 revealHash, uint256 random);\r\n  \r\n    function getRandomNumberOfLength(uint length) public returns (uint) {\r\n        // return some random integer of length \r\n    }\r\n}\r\n",
  "sourcePath": "C:/Code/Private/Lottery-SC/Lottery-SC/contracts/Oracle.sol",
  "compiler": {
    "name": "solc",
    "version": "0.5.0+commit.1d4f565a.Emscripten.clang"
  },
  "schemaVersion": "3.0.1",
  "updatedAt": "2019-05-01T14:28:33.831Z",
  "devdoc": {
    "methods": {}
  },
  "userdoc": {
    "methods": {}
  }
}