{
  "contractName": "Oracle",
  "abi": [
    {
      "constant": true,
      "inputs": [
        {
          "name": "",
          "type": "uint256"
        }
      ],
      "name": "campaigns",
      "outputs": [
        {
          "name": "id",
          "type": "uint256"
        },
        {
          "name": "owner",
          "type": "address"
        },
        {
          "name": "deposit",
          "type": "uint96"
        },
        {
          "name": "commitBalkline",
          "type": "uint16"
        },
        {
          "name": "commitDeadline",
          "type": "uint16"
        },
        {
          "name": "random",
          "type": "uint256"
        },
        {
          "name": "settled",
          "type": "bool"
        },
        {
          "name": "commitNum",
          "type": "uint32"
        },
        {
          "name": "revealsNum",
          "type": "uint32"
        }
      ],
      "payable": false,
      "stateMutability": "view",
      "type": "function",
      "signature": "0x141961bc"
    },
    {
      "inputs": [],
      "payable": false,
      "stateMutability": "nonpayable",
      "type": "constructor",
      "signature": "constructor"
    },
    {
      "anonymous": false,
      "inputs": [
        {
          "indexed": true,
          "name": "campaignID",
          "type": "uint256"
        }
      ],
      "name": "LogCampaignAdded",
      "type": "event",
      "signature": "0x650d3cfa50b11c3a4da720a0649a4499b9a72d9b782f564f3c1d9a4366ab3b05"
    },
    {
      "anonymous": false,
      "inputs": [
        {
          "indexed": true,
          "name": "CampaignId",
          "type": "uint256"
        },
        {
          "indexed": true,
          "name": "from",
          "type": "address"
        },
        {
          "indexed": false,
          "name": "commitment",
          "type": "bytes32"
        }
      ],
      "name": "LogCommit",
      "type": "event",
      "signature": "0x918c00c65dd2a8dee4c6985d1d67f04aa8cd2c93e8d427d398a90444c7f7c75e"
    },
    {
      "anonymous": false,
      "inputs": [
        {
          "indexed": true,
          "name": "CampaignId",
          "type": "uint256"
        },
        {
          "indexed": true,
          "name": "from",
          "type": "address"
        },
        {
          "indexed": false,
          "name": "secret",
          "type": "uint256"
        }
      ],
      "name": "LogReveal",
      "type": "event",
      "signature": "0x9141bfaedbc77aa7b8d9c989cd81909d95bb1677e556e34cfd45e50e0bea2967"
    },
    {
      "constant": false,
      "inputs": [],
      "name": "startNewCampaign",
      "outputs": [],
      "payable": false,
      "stateMutability": "nonpayable",
      "type": "function",
      "signature": "0x5ab32824"
    },
    {
      "constant": false,
      "inputs": [
        {
          "name": "campaignId",
          "type": "uint256"
        },
        {
          "name": "hashedSecret",
          "type": "bytes32"
        }
      ],
      "name": "commit",
      "outputs": [],
      "payable": true,
      "stateMutability": "payable",
      "type": "function",
      "signature": "0xf2f03877"
    },
    {
      "constant": false,
      "inputs": [
        {
          "name": "campaignId",
          "type": "uint256"
        },
        {
          "name": "secret",
          "type": "uint256"
        }
      ],
      "name": "reveal",
      "outputs": [],
      "payable": false,
      "stateMutability": "nonpayable",
      "type": "function",
      "signature": "0x9348cef7"
    },
    {
      "constant": false,
      "inputs": [
        {
          "name": "campaignId",
          "type": "uint256"
        }
      ],
      "name": "getRandom",
      "outputs": [
        {
          "name": "",
          "type": "uint256"
        }
      ],
      "payable": false,
      "stateMutability": "nonpayable",
      "type": "function",
      "signature": "0xcd4b6914"
    }
  ],
  "bytecode": "0x608060405234801561001057600080fd5b50610783806100206000396000f3fe60806040526004361061006c5763ffffffff7c0100000000000000000000000000000000000000000000000000000000600035041663141961bc81146100715780635ab32824146101145780639348cef71461012b578063cd4b69141461015b578063f2f0387714610197575b600080fd5b34801561007d57600080fd5b5061009b6004803603602081101561009457600080fd5b50356101ba565b60408051998a5273ffffffffffffffffffffffffffffffffffffffff90981660208a01526bffffffffffffffffffffffff9096168888015261ffff948516606089015292909316608087015260a086015290151560c085015263ffffffff90811660e08501521661010083015251908190036101200190f35b34801561012057600080fd5b50610129610263565b005b34801561013757600080fd5b506101296004803603604081101561014e57600080fd5b50803590602001356102e9565b34801561016757600080fd5b506101856004803603602081101561017e57600080fd5b503561032d565b60408051918252519081900360200190f35b610129600480360360408110156101ad57600080fd5b5080359060200135610361565b60008054829081106101c857fe5b60009182526020909120600690910201805460018201546002830154600384015460049094015492945073ffffffffffffffffffffffffffffffffffffffff821693740100000000000000000000000000000000000000009092046bffffffffffffffffffffffff169261ffff808316936201000090930416919060ff811690610100810463ffffffff908116916501000000000090041689565b6000805461027482600183016106d5565b90506000808281548110151561028657fe5b6000918252602082206001600690920201908101805473ffffffffffffffffffffffffffffffffffffffff19163317905583815560405190925083917f650d3cfa50b11c3a4da720a0649a4499b9a72d9b782f564f3c1d9a4366ab3b0591a25050565b600080838154811015156102f957fe5b60009182526020808320338452600560069093020191820190526040909120909150610327848484846103fb565b50505050565b60008060008381548110151561033f57fe5b9060005260206000209060060201905061035881610537565b9150505b919050565b808015156103d057604080517f08c379a000000000000000000000000000000000000000000000000000000000815260206004820152601a60248201527f53686f756c64206e6f7420626520626c616e6b20627574206973000000000000604482015290519081900360640190fd5b600080848154811015156103e057fe5b90600052602060002090600602019050610327848483610577565b60018101546040805160208082018790528251808303820181529183019092528051910120849190811461042e57600080fd5b600383015460ff1680156104a357604080517f08c379a000000000000000000000000000000000000000000000000000000000815260206004820152601b60248201527f53686f756c642062652066616c73652062757420697320747275650000000000604482015290519081900360640190fd5b8584556003808501805460ff1916600190811790915560048701805463ffffffff6501000000000080830482169094011690920268ffffffff000000000019909216919091179055845490860180549091189055604080518781529051339189917f9141bfaedbc77aa7b8d9c989cd81909d95bb1677e556e34cfd45e50e0bea29679181900360200190a350505050505050565b600481015460009065010000000000810463ffffffff90811661010090920416141561035c575060048101805460ff19166001179055600381015461035c565b33600090815260058201602052604090206001015480156105f957604080517f08c379a000000000000000000000000000000000000000000000000000000000815260206004820152601a60248201527f53686f756c6420626520626c616e6b20627574206973206e6f74000000000000604482015290519081900360640190fd5b6040805160a0810182526000808252602080830187815283850183815260608501848152608086018581523380875260058b01865295889020965187559251600180880191909155915160028701555160039095018054925160ff199093169515159590951761ff00191661010092151583021790945560048701805464ffffffff001981169083900463ffffffff9081169096019095169091029390931790925582518681529251909287927f918c00c65dd2a8dee4c6985d1d67f04aa8cd2c93e8d427d398a90444c7f7c75e92918290030190a350505050565b815481835581811115610701576006028160060283600052602060002091820191016107019190610706565b505050565b61075491905b808211156107505760008082556001820181905560028201805463ffffffff19169055600382015560048101805468ffffffffffffffffff1916905560060161070c565b5090565b9056fea165627a7a72305820c82718b1d0f9dd035c2579756c1410a42ea7ffe56f23c198bc9789d0d3ed56b00029",
  "source": "pragma solidity ^0.5.0;\r\n\r\ncontract Oracle {\r\n\t\r\n    constructor () public{\r\n        \r\n    }\r\n\r\n\tCampaign[] public campaigns;\r\n\r\n    struct Participant {\r\n        uint256   secret;\r\n        bytes32   commitment;\r\n        uint256   reward;\r\n        bool      revealed;\r\n        bool      rewarded;\r\n    }\r\n\t\r\n\tevent LogCampaignAdded(uint256 indexed campaignID);\r\n\r\n    modifier notBeBlank(bytes32 _s) {if (_s == \"\") revert(\"Should not be blank but is\"); _;}\r\n\r\n    modifier beBlank(bytes32 _s) {if (_s != \"\") revert(\"Should be blank but is not\"); _;}\r\n\r\n    modifier beFalse(bool _t) {if (_t) revert(\"Should be false but is true\"); _;}\r\n\t\r\n\tstruct Campaign {\r\n\t\tuint256   id;\r\n        address   owner;\r\n        uint96    deposit;\r\n        uint16    commitBalkline;\r\n        uint16    commitDeadline;\r\n\r\n        uint256   random;\r\n        bool      settled;\r\n        uint32    commitNum;\r\n        uint32    revealsNum;\r\n\r\n\t\tmapping (address => Participant) participants;\r\n\t}\r\n\r\n    \r\n\t\r\n\tfunction startNewCampaign() public{\r\n        \r\n\t\tuint256 campaginId = campaigns.length++;\r\n\t\tCampaign storage c = campaigns[campaginId];\r\n        c.owner = msg.sender;\r\n\t\tc.id = campaginId;\r\n\t\temit LogCampaignAdded(campaginId);\r\n    }\r\n\t\r\n\t  \r\n\tevent LogCommit(uint256 indexed CampaignId, address indexed from, bytes32 commitment);\r\n\r\n    function commit(uint256 campaignId, bytes32 hashedSecret) notBeBlank(hashedSecret) external payable {\r\n        Campaign storage c = campaigns[campaignId];\r\n        commitmentCampaign(campaignId, hashedSecret, c);\r\n    }\r\n\t\r\n\tfunction commitmentCampaign(\r\n        uint256 campaignId,\r\n        bytes32 hashedSecret,\r\n        Campaign storage c\r\n    )  beBlank(c.participants[msg.sender].commitment) internal {\r\n        c.participants[msg.sender] = Participant(0, hashedSecret, 0, false, false);\r\n        c.commitNum++;\r\n        emit LogCommit(campaignId, msg.sender, hashedSecret);\r\n    }\r\n    \r\n\tevent LogReveal(uint256 indexed CampaignId, address indexed from, uint256 secret);\r\n\r\n    function reveal(uint256 campaignId, uint256 secret) external {\r\n        Campaign storage c = campaigns[campaignId];\r\n        Participant storage p = c.participants[msg.sender];\r\n        revealCampaign(campaignId, secret, c, p);\r\n    }\r\n\r\n    modifier checkSecret(uint256 _s, bytes32 _commitment) {\r\n        if (keccak256(abi.encodePacked(_s)) != _commitment) revert();\r\n        _;\r\n    }\r\n\r\n    function revealCampaign(\r\n        uint256 campaignId,\r\n        uint256 secret,\r\n        Campaign storage c,\r\n        Participant storage p\r\n    )   checkSecret(secret, p.commitment)\r\n        beFalse(p.revealed) internal {\r\n        p.secret = secret;\r\n        p.revealed = true;\r\n        c.revealsNum++;\r\n        c.random ^= p.secret;\r\n        emit LogReveal(campaignId, msg.sender, secret);\r\n    }\r\n\r\n    function getRandom(uint256 campaignId) external returns (uint256) {\r\n        Campaign storage c = campaigns[campaignId];\r\n        return returnRandom(c);\r\n    }\r\n\r\n    function returnRandom(Campaign storage c) internal returns (uint256) {\r\n        if (c.revealsNum == c.commitNum) {\r\n            c.settled = true;\r\n            return c.random;\r\n        }\r\n    }\r\n}\r\n",
  "sourcePath": "C:/Code/Private/Lottery-SC/Lottery-SC/contracts/Oracle.sol",
  "compiler": {
    "name": "solc",
    "version": "0.5.0+commit.1d4f565a.Emscripten.clang"
  },
  "schemaVersion": "3.0.1",
  "updatedAt": "2019-05-05T15:14:07.858Z",
  "devdoc": {
    "methods": {}
  },
  "userdoc": {
    "methods": {}
  }
}