{
  "contractName": "Oracle",
  "abi": [
    {
      "constant": true,
      "inputs": [
        {
          "name": "",
          "type": "uint256"
        }
      ],
      "name": "campaigns",
      "outputs": [
        {
          "name": "id",
          "type": "uint256"
        },
        {
          "name": "owner",
          "type": "address"
        },
        {
          "name": "deposit",
          "type": "uint256"
        },
        {
          "name": "modulo",
          "type": "uint16"
        },
        {
          "name": "commitDeadline",
          "type": "uint256"
        },
        {
          "name": "revealDeadline",
          "type": "uint256"
        },
        {
          "name": "random",
          "type": "bytes32"
        },
        {
          "name": "result",
          "type": "uint256"
        },
        {
          "name": "settled",
          "type": "bool"
        },
        {
          "name": "commitNum",
          "type": "uint32"
        },
        {
          "name": "revealsNum",
          "type": "uint32"
        },
        {
          "name": "minimumFunding",
          "type": "uint256"
        }
      ],
      "payable": false,
      "stateMutability": "view",
      "type": "function",
      "signature": "0x141961bc"
    },
    {
      "inputs": [],
      "payable": true,
      "stateMutability": "payable",
      "type": "constructor",
      "signature": "constructor"
    },
    {
      "anonymous": false,
      "inputs": [
        {
          "indexed": true,
          "name": "campaignID",
          "type": "uint256"
        }
      ],
      "name": "LogCampaignAdded",
      "type": "event",
      "signature": "0x650d3cfa50b11c3a4da720a0649a4499b9a72d9b782f564f3c1d9a4366ab3b05"
    },
    {
      "anonymous": false,
      "inputs": [
        {
          "indexed": true,
          "name": "CampaignId",
          "type": "uint256"
        },
        {
          "indexed": true,
          "name": "from",
          "type": "address"
        },
        {
          "indexed": false,
          "name": "commitment",
          "type": "bytes32"
        }
      ],
      "name": "LogCommit",
      "type": "event",
      "signature": "0x918c00c65dd2a8dee4c6985d1d67f04aa8cd2c93e8d427d398a90444c7f7c75e"
    },
    {
      "anonymous": false,
      "inputs": [
        {
          "indexed": true,
          "name": "CampaignId",
          "type": "uint256"
        },
        {
          "indexed": true,
          "name": "from",
          "type": "address"
        },
        {
          "indexed": false,
          "name": "secret",
          "type": "string"
        }
      ],
      "name": "LogReveal",
      "type": "event",
      "signature": "0x062e3eb0307066023eeab182f6acb23f258a4276064307373fdce6542637f78a"
    },
    {
      "anonymous": false,
      "inputs": [
        {
          "indexed": true,
          "name": "CampaignId",
          "type": "uint256"
        },
        {
          "indexed": false,
          "name": "random",
          "type": "uint256"
        }
      ],
      "name": "LogRandom",
      "type": "event",
      "signature": "0xa34f42a90fadfe357ee14419d618438a057569fbb63bab0c5fbcca0fc2b11e8d"
    },
    {
      "constant": false,
      "inputs": [
        {
          "name": "commitDuration",
          "type": "uint256"
        },
        {
          "name": "revealDuration",
          "type": "uint16"
        },
        {
          "name": "minimumFunding",
          "type": "uint256"
        },
        {
          "name": "modulo",
          "type": "uint16"
        }
      ],
      "name": "startNewCampaign",
      "outputs": [
        {
          "name": "",
          "type": "uint256"
        }
      ],
      "payable": false,
      "stateMutability": "nonpayable",
      "type": "function",
      "signature": "0x874667c3"
    },
    {
      "constant": false,
      "inputs": [
        {
          "name": "campaignId",
          "type": "uint256"
        },
        {
          "name": "hashedSecret",
          "type": "bytes32"
        }
      ],
      "name": "commit",
      "outputs": [],
      "payable": true,
      "stateMutability": "payable",
      "type": "function",
      "signature": "0xf2f03877"
    },
    {
      "constant": false,
      "inputs": [
        {
          "name": "campaignId",
          "type": "uint256"
        },
        {
          "name": "secret",
          "type": "string"
        }
      ],
      "name": "reveal",
      "outputs": [],
      "payable": false,
      "stateMutability": "nonpayable",
      "type": "function",
      "signature": "0x2fa4548b"
    },
    {
      "constant": false,
      "inputs": [
        {
          "name": "campaignId",
          "type": "uint256"
        }
      ],
      "name": "getRandom",
      "outputs": [
        {
          "name": "",
          "type": "uint256"
        }
      ],
      "payable": false,
      "stateMutability": "nonpayable",
      "type": "function",
      "signature": "0xcd4b6914"
    }
  ],
  "bytecode": "0x6080604052610f65806100136000396000f3fe60806040526004361061006c5763ffffffff7c0100000000000000000000000000000000000000000000000000000000600035041663141961bc81146100715780632fa4548b1461011d578063874667c3146101a3578063cd4b6914146101f9578063f2f0387714610223575b600080fd5b34801561007d57600080fd5b5061009b6004803603602081101561009457600080fd5b5035610246565b604080519c8d5273ffffffffffffffffffffffffffffffffffffffff909b1660208d01528b8b019990995261ffff90971660608b015260808a019590955260a089019390935260c088019190915260e0870152151561010086015263ffffffff9081166101208601521661014084015261016083015251908190036101800190f35b34801561012957600080fd5b506101a16004803603604081101561014057600080fd5b8135919081019060408101602082013564010000000081111561016257600080fd5b82018360208201111561017457600080fd5b8035906020019184600183028401116401000000008311171561019657600080fd5b5090925090506102e0565b005b3480156101af57600080fd5b506101e7600480360360808110156101c657600080fd5b5080359061ffff602082013581169160408101359160609091013516610415565b60408051918252519081900360200190f35b34801561020557600080fd5b506101e76004803603602081101561021c57600080fd5b50356104d9565b6101a16004803603604081101561023957600080fd5b508035906020013561052e565b600080548290811061025457fe5b60009182526020909120600c9091020180546001820154600283015460038401546004850154600586015460068701546007880154600889015460099099015497995073ffffffffffffffffffffffffffffffffffffffff90961697949661ffff909416959294919390929160ff81169163ffffffff610100830481169265010000000000900416908c565b600080848154811015156102f057fe5b60009182526020808320338452600a600c9093020191820190526040909120600582015491925090431061036e576040805160e560020a62461bcd02815260206004820152601b60248201527f52657665616c706861736520697320616c7265616479206f7665720000000000604482015290519081900360640190fd5b81600401544310156103ca576040805160e560020a62461bcd02815260206004820152601860248201527f436f6d6d69747068617365206e6f74206f766572207965740000000000000000604482015290519081900360640190fd5b61040e8585858080601f01602080910402602001604051908101604052809392919081815260200183838082843760009201919091525087925086915061069e9050565b5050505050565b6000805481906104288260018301610db9565b90506000808281548110151561043a57fe5b600091825260208220438a01600c92909202016004810182905561ffff89811690920160058201556009810188905560038101805461ffff1916928816929092179091556001810180543373ffffffffffffffffffffffffffffffffffffffff1990911617905583815560405190925083917f650d3cfa50b11c3a4da720a0649a4499b9a72d9b782f564f3c1d9a4366ab3b0591a25095945050505050565b6000806000838154811015156104eb57fe5b600091825260209091206008600c909202019081015490915060ff1615156001141561051c57600701549050610529565b610525816109c7565b9150505b919050565b80801515610586576040805160e560020a62461bcd02815260206004820152601a60248201527f53686f756c64206e6f7420626520626c616e6b20627574206973000000000000604482015290519081900360640190fd5b6000808481548110151561059657fe5b90600052602060002090600c020190508060090154341015610628576040805160e560020a62461bcd02815260206004820152602260248201527f506c656173652070726f7669646520746865206e65636573736172792066756e60448201527f6473000000000000000000000000000000000000000000000000000000000000606482015290519081900360840190fd5b60048101544310610683576040805160e560020a62461bcd02815260206004820152601b60248201527f436f6d6d6974706861736520697320616c7265616479206f7665720000000000604482015290519081900360640190fd5b60028101805434019055610698848483610b43565b50505050565b82816001015480826040516020018082805190602001908083835b602083106106d85780518252601f1990920191602091820191016106b9565b6001836020036101000a0380198251168184511680821785525050505050509050019150506040516020818303038152906040528051906020012014151561076a576040805160e560020a62461bcd02815260206004820152601660248201527f536563726574206973206e6f74207468652073616d6500000000000000000000604482015290519081900360640190fd5b600283015460ff1680156107c8576040805160e560020a62461bcd02815260206004820152601b60248201527f53686f756c642062652066616c73652062757420697320747275650000000000604482015290519081900360640190fd5b43856004015480821015610826576040805160e560020a62461bcd02815260206004820152601860248201527f446561646c696e65206e6f742072656163686564207965740000000000000000604482015290519081900360640190fd5b875161083890879060208b0190610dea565b5060028601805460ff1916600190811790915560088801805463ffffffff6501000000000080830482169094011690920268ffffffff0000000000199092169190911790556040518851899133916020918201918291908501908083835b602083106108b55780518252601f199092019160209182019101610896565b51815160209384036101000a600019018019909216911617905273ffffffffffffffffffffffffffffffffffffffff959095166c010000000000000000000000000292019182525060408051808303600b19018152601483019182905280519085012060068d01805490911890558381528c5160348301528c513395508e947f062e3eb0307066023eeab182f6acb23f258a4276064307373fdce6542637f78a94508e93839260549091019185019080838360005b8381101561098257818101518382015260200161096a565b50505050905090810190601f1680156109af5780820380516001836020036101000a031916815260200191505b509250505060405180910390a3505050505050505050565b60058101546000904310610acd57600882015465010000000000810463ffffffff908116610100909204161415610a745760088201805460ff191660011790556003820154600683015461ffff90911690811515610a2157fe5b06600783018190558254604080519283525190917fa34f42a90fadfe357ee14419d618438a057569fbb63bab0c5fbcca0fc2b11e8d919081900360200190a2610a6982610cbb565b506007810154610529565b610a7d82610cbb565b6040805160e560020a62461bcd02815260206004820152601960248201527f4e6f742065766572796f6e652068617320636f6d6d6974656400000000000000604482015290519081900360640190fd5b6040805160e560020a62461bcd02815260206004820152602d60248201527f506c65617365207761697420756e74696c2074686520656e64206f662074686560448201527f2072657665616c20706861736500000000000000000000000000000000000000606482015290519081900360840190fd5b336000908152600a820160205260409020600101548015610bae576040805160e560020a62461bcd02815260206004820152601a60248201527f53686f756c6420626520626c616e6b20627574206973206e6f74000000000000604482015290519081900360640190fd5b6040805160808101825260006060820181815282526020808301879052828401829052338252600a860181529290208151805192939192610bf29284920190610dea565b506020828101516001808401919091556040938401516002909301805493151560ff1990941693909317909255600b85018054808401825560009182529082902001805473ffffffffffffffffffffffffffffffffffffffff19163390811790915560088601805463ffffffff61010080830482169096011690940264ffffffff00199094169390931790925582518681529251919287927f918c00c65dd2a8dee4c6985d1d67f04aa8cd2c93e8d427d398a90444c7f7c75e929181900390910190a350505050565b60005b600b820154811015610db55781600a01600083600b0183815481101515610ce157fe5b600091825260208083209091015473ffffffffffffffffffffffffffffffffffffffff16835282019290925260400190206002015460ff16151560011415610dad57600b8201805482908110610d3357fe5b6000918252602090912001546008830154600284015473ffffffffffffffffffffffffffffffffffffffff909216916108fc9165010000000000900463ffffffff1690811515610d7f57fe5b049081150290604051600060405180830381858888f19350505050158015610dab573d6000803e3d6000fd5b505b600101610cbe565b5050565b815481835581811115610de557600c0281600c028360005260206000209182019101610de59190610e68565b505050565b828054600181600116156101000203166002900490600052602060002090601f016020900481019282601f10610e2b57805160ff1916838001178555610e58565b82800160010185558215610e58579182015b82811115610e58578251825591602001919060010190610e3d565b50610e64929150610efe565b5090565b610efb91905b80821115610e6457600080825560018201805473ffffffffffffffffffffffffffffffffffffffff191690556002820181905560038201805461ffff191690556004820181905560058201819055600682018190556007820181905560088201805468ffffffffffffffffff1916905560098201819055610ef2600b830182610f18565b50600c01610e6e565b90565b610efb91905b80821115610e645760008155600101610f04565b5080546000825590600052602060002090810190610f369190610efe565b5056fea165627a7a72305820fd544f4e2717d98639d2a02b478c308fe8dbf38117a4cbaabf421c7a273d91a60029",
  "source": "pragma solidity ^0.5.0;\r\n\r\ncontract Oracle {\r\n\r\n    constructor () public payable{\r\n\r\n    }\r\n\r\n\tCampaign[] public campaigns;\r\n\r\n    struct Participant {\r\n        string    secret;\r\n        bytes32   commitment;\r\n        bool      revealed;\r\n    }\r\n\r\n\tevent LogCampaignAdded(uint256 indexed campaignID);\r\n\r\n    modifier notBeBlank(bytes32 _s) {if (_s == \"\") revert(\"Should not be blank but is\"); _;}\r\n\r\n    modifier beBlank(bytes32 _s) {if (_s != \"\") revert(\"Should be blank but is not\"); _;}\r\n\r\n    modifier timeNotOver(uint256 current, uint256 deadline) {if (current < deadline) revert(\"Deadline not reached yet\"); _;}\r\n\r\n    modifier beFalse(bool _t) {if (_t) revert(\"Should be false but is true\"); _;}\r\n\r\n\tstruct Campaign {\r\n\t\tuint256 id;\r\n        address owner;\r\n        uint256 deposit;\r\n        uint16  modulo;\r\n        uint256  commitDeadline;\r\n        uint256  revealDeadline;\r\n        bytes32 random;\r\n        uint256 result;\r\n        bool    settled;\r\n        uint32  commitNum;\r\n        uint32  revealsNum;\r\n        uint256  minimumFunding;\r\n\t\tmapping (address => Participant) participants;\r\n        address payable[]  addressesOfParticipants;\r\n\t}\r\n\r\n\r\n\tfunction startNewCampaign(uint256 commitDuration, uint16 revealDuration,uint256 minimumFunding,uint16 modulo) public returns(uint256){\r\n\r\n\t\tuint256 campaginId = campaigns.length++;\r\n\t\tCampaign storage c = campaigns[campaginId];\r\n        c.commitDeadline = block.number+commitDuration;\r\n        c.revealDeadline = c.commitDeadline+revealDuration;\r\n        c.minimumFunding = minimumFunding;\r\n        c.modulo = modulo;\r\n        c.owner = msg.sender;\r\n\t\tc.id = campaginId;\r\n\t\temit LogCampaignAdded(campaginId);\r\n        return campaginId;\r\n    }\r\n\r\n\tevent LogCommit(uint256 indexed CampaignId, address indexed from, bytes32 commitment);\r\n\r\n    function commit(uint256 campaignId, bytes32 hashedSecret) external\r\n    notBeBlank(hashedSecret) payable {\r\n        Campaign storage c = campaigns[campaignId];\r\n        if (msg.value < c.minimumFunding) revert(\"Please provide the necessary funds\");\r\n        if (block.number >= c.commitDeadline) revert(\"Commitphase is already over\");\r\n        c.deposit += msg.value;\r\n        commitmentCampaign(campaignId, hashedSecret, c);\r\n    }\r\n\r\n\tfunction commitmentCampaign(\r\n        uint256 campaignId,\r\n        bytes32 hashedSecret,\r\n        Campaign storage c\r\n    )internal\r\n    beBlank(c.participants[msg.sender].commitment) {\r\n        c.participants[msg.sender] = Participant(\"\", hashedSecret, false);\r\n        c.addressesOfParticipants.push(msg.sender);\r\n        c.commitNum++;\r\n         emit LogCommit(campaignId, msg.sender, hashedSecret);\r\n    }\r\n\r\n\tevent LogReveal(uint256 indexed CampaignId, address indexed from, string secret);\r\n\r\n    function reveal(uint256 campaignId, string calldata secret) external {\r\n        Campaign storage c = campaigns[campaignId];\r\n        Participant storage p = c.participants[msg.sender];\r\n        if (block.number >= c.revealDeadline) revert(\"Revealphase is already over\");\r\n        if (block.number < c.commitDeadline) revert(\"Commitphase not over yet\");\r\n        revealCampaign(campaignId, secret, c, p);\r\n    }\r\n\r\n    modifier checkSecret(string memory secret, bytes32 _commitment) {\r\n        if (keccak256(abi.encodePacked(secret)) != _commitment) revert(\"Secret is not the same\");\r\n        _;\r\n    }\r\n\r\n    function revealCampaign(\r\n        uint256 campaignId,\r\n        string memory secret,\r\n        Campaign storage c,\r\n        Participant storage p\r\n    ) internal\r\n    checkSecret(secret, p.commitment)\r\n    beFalse(p.revealed)\r\n    timeNotOver(block.number, c.commitDeadline) {\r\n        p.secret = secret;\r\n        p.revealed = true;\r\n        c.revealsNum++;\r\n        c.random ^= keccak256(abi.encodePacked(secret,msg.sender));\r\n        emit LogReveal(campaignId, msg.sender, secret);\r\n    }\r\n\r\n    event LogRandom(uint256 indexed CampaignId, uint256 random);\r\n\r\n    function getRandom(uint256 campaignId) external returns (uint256) {\r\n        Campaign storage c = campaigns[campaignId];\r\n        if(c.settled==true){return c.result;}else{return returnRandom(c);}\r\n    }\r\n\r\n    function returnRandom(Campaign storage c) internal returns (uint256) {\r\n        if(block.number >= c.revealDeadline){\r\n            if (c.revealsNum == c.commitNum) {\r\n                c.settled = true;\r\n                c.result = uint256(c.random) % c.modulo;\r\n                emit LogRandom(c.id, c.result);\r\n                returnFunds(c);\r\n                return c.result;\r\n            }else {\r\n                returnFunds(c);\r\n                revert(\"Not everyone has commited\");\r\n            }\r\n        }else{\r\n            revert(\"Please wait until the end of the reveal phase\");\r\n        }\r\n    }\r\n\r\n    function returnFunds(Campaign storage c) internal {\r\n        for(uint i = 0; i < c.addressesOfParticipants.length; i++) {\r\n            if(c.participants[c.addressesOfParticipants[i]].revealed == true){\r\n                c.addressesOfParticipants[i].transfer(c.deposit/c.revealsNum);\r\n            }\r\n        }\r\n    }\r\n}\r\n",
  "sourcePath": "C:/Code/Private/Lottery-SC/Lottery-SC/contracts/Oracle.sol",
  "compiler": {
    "name": "solc",
    "version": "0.5.0+commit.1d4f565a.Emscripten.clang"
  },
  "schemaVersion": "3.0.1",
  "updatedAt": "2019-05-09T08:54:08.229Z",
  "devdoc": {
    "methods": {}
  },
  "userdoc": {
    "methods": {}
  }
}